{
  "_format": "hh-sol-artifact-1",
  "contractName": "Faucet",
  "sourceName": "contracts/Faucet.sol",
  "abi": [
    {
      "inputs": [
        {
          "internalType": "address",
          "name": "tokenAddress",
          "type": "address"
        }
      ],
      "stateMutability": "nonpayable",
      "type": "constructor"
    },
    {
      "anonymous": false,
      "inputs": [
        {
          "indexed": false,
          "internalType": "uint256",
          "name": "newAmount",
          "type": "uint256"
        }
      ],
      "name": "ClaimAmountUpdated",
      "type": "event"
    },
    {
      "anonymous": false,
      "inputs": [
        {
          "indexed": true,
          "internalType": "address",
          "name": "user",
          "type": "address"
        }
      ],
      "name": "ClaimRequested",
      "type": "event"
    },
    {
      "anonymous": false,
      "inputs": [
        {
          "indexed": true,
          "internalType": "bytes32",
          "name": "role",
          "type": "bytes32"
        },
        {
          "indexed": true,
          "internalType": "bytes32",
          "name": "previousAdminRole",
          "type": "bytes32"
        },
        {
          "indexed": true,
          "internalType": "bytes32",
          "name": "newAdminRole",
          "type": "bytes32"
        }
      ],
      "name": "RoleAdminChanged",
      "type": "event"
    },
    {
      "anonymous": false,
      "inputs": [
        {
          "indexed": true,
          "internalType": "bytes32",
          "name": "role",
          "type": "bytes32"
        },
        {
          "indexed": true,
          "internalType": "address",
          "name": "account",
          "type": "address"
        },
        {
          "indexed": true,
          "internalType": "address",
          "name": "sender",
          "type": "address"
        }
      ],
      "name": "RoleGranted",
      "type": "event"
    },
    {
      "anonymous": false,
      "inputs": [
        {
          "indexed": true,
          "internalType": "bytes32",
          "name": "role",
          "type": "bytes32"
        },
        {
          "indexed": true,
          "internalType": "address",
          "name": "account",
          "type": "address"
        },
        {
          "indexed": true,
          "internalType": "address",
          "name": "sender",
          "type": "address"
        }
      ],
      "name": "RoleRevoked",
      "type": "event"
    },
    {
      "anonymous": false,
      "inputs": [
        {
          "indexed": true,
          "internalType": "address",
          "name": "user",
          "type": "address"
        },
        {
          "indexed": false,
          "internalType": "uint256",
          "name": "amount",
          "type": "uint256"
        }
      ],
      "name": "TokensClaimed",
      "type": "event"
    },
    {
      "inputs": [],
      "name": "DEFAULT_ADMIN_ROLE",
      "outputs": [
        {
          "internalType": "bytes32",
          "name": "",
          "type": "bytes32"
        }
      ],
      "stateMutability": "view",
      "type": "function"
    },
    {
      "inputs": [],
      "name": "SETTER_ROLE",
      "outputs": [
        {
          "internalType": "bytes32",
          "name": "",
          "type": "bytes32"
        }
      ],
      "stateMutability": "view",
      "type": "function"
    },
    {
      "inputs": [],
      "name": "claimAmount",
      "outputs": [
        {
          "internalType": "uint256",
          "name": "",
          "type": "uint256"
        }
      ],
      "stateMutability": "view",
      "type": "function"
    },
    {
      "inputs": [],
      "name": "claimTokens",
      "outputs": [],
      "stateMutability": "nonpayable",
      "type": "function"
    },
    {
      "inputs": [
        {
          "internalType": "bytes32",
          "name": "role",
          "type": "bytes32"
        }
      ],
      "name": "getRoleAdmin",
      "outputs": [
        {
          "internalType": "bytes32",
          "name": "",
          "type": "bytes32"
        }
      ],
      "stateMutability": "view",
      "type": "function"
    },
    {
      "inputs": [
        {
          "internalType": "bytes32",
          "name": "role",
          "type": "bytes32"
        },
        {
          "internalType": "address",
          "name": "account",
          "type": "address"
        }
      ],
      "name": "grantRole",
      "outputs": [],
      "stateMutability": "nonpayable",
      "type": "function"
    },
    {
      "inputs": [
        {
          "internalType": "address",
          "name": "",
          "type": "address"
        }
      ],
      "name": "hasClaimed",
      "outputs": [
        {
          "internalType": "bool",
          "name": "",
          "type": "bool"
        }
      ],
      "stateMutability": "view",
      "type": "function"
    },
    {
      "inputs": [
        {
          "internalType": "bytes32",
          "name": "role",
          "type": "bytes32"
        },
        {
          "internalType": "address",
          "name": "account",
          "type": "address"
        }
      ],
      "name": "hasRole",
      "outputs": [
        {
          "internalType": "bool",
          "name": "",
          "type": "bool"
        }
      ],
      "stateMutability": "view",
      "type": "function"
    },
    {
      "inputs": [
        {
          "internalType": "bytes32",
          "name": "role",
          "type": "bytes32"
        },
        {
          "internalType": "address",
          "name": "account",
          "type": "address"
        }
      ],
      "name": "renounceRole",
      "outputs": [],
      "stateMutability": "nonpayable",
      "type": "function"
    },
    {
      "inputs": [
        {
          "internalType": "bytes32",
          "name": "role",
          "type": "bytes32"
        },
        {
          "internalType": "address",
          "name": "account",
          "type": "address"
        }
      ],
      "name": "revokeRole",
      "outputs": [],
      "stateMutability": "nonpayable",
      "type": "function"
    },
    {
      "inputs": [
        {
          "internalType": "uint256",
          "name": "newAmount",
          "type": "uint256"
        }
      ],
      "name": "setClaimAmount",
      "outputs": [],
      "stateMutability": "nonpayable",
      "type": "function"
    },
    {
      "inputs": [
        {
          "internalType": "bytes4",
          "name": "interfaceId",
          "type": "bytes4"
        }
      ],
      "name": "supportsInterface",
      "outputs": [
        {
          "internalType": "bool",
          "name": "",
          "type": "bool"
        }
      ],
      "stateMutability": "view",
      "type": "function"
    },
    {
      "inputs": [],
      "name": "token",
      "outputs": [
        {
          "internalType": "contract MyToken",
          "name": "",
          "type": "address"
        }
      ],
      "stateMutability": "view",
      "type": "function"
    }
  ],
  "bytecode": "0x6080604052630bebc20060025534801561001857600080fd5b50604051610bfe380380610bfe83398101604081905261003791610193565b6001600160a01b0381166100915760405162461bcd60e51b815260206004820152601c60248201527f546f6b656e20616464726573732063616e6e6f74206265207a65726f00000000604482015260640160405180910390fd5b600180546001600160a01b0319166001600160a01b0383161790556100b76000336100e7565b6100e17f61c92169ef077349011ff0b1383c894d86c5f0b41d986366b58a6cf31e93beda336100e7565b506101c3565b6100f182826100f5565b5050565b6000828152602081815260408083206001600160a01b038516845290915290205460ff166100f1576000828152602081815260408083206001600160a01b03851684529091529020805460ff1916600117905561014f3390565b6001600160a01b0316816001600160a01b0316837f2f8788117e7eff1d82e926ec794901d17c78024a50270940304540a733656f0d60405160405180910390a45050565b6000602082840312156101a557600080fd5b81516001600160a01b03811681146101bc57600080fd5b9392505050565b610a2c806101d26000396000f3fe608060405234801561001057600080fd5b50600436106100cf5760003560e01c8063830953ab1161008c578063a217fddf11610066578063a217fddf146101c3578063b1c7ef0c146101cb578063d547741f146101de578063fc0c546a146101f157600080fd5b8063830953ab1461018057806391d1485414610189578063a2011b3f1461019c57600080fd5b806301ffc9a7146100d4578063248a9ca3146100fc5780632f2ff15d1461012d57806336568abe1461014257806348c54b9d1461015557806373b2e80e1461015d575b600080fd5b6100e76100e2366004610801565b61021c565b60405190151581526020015b60405180910390f35b61011f61010a36600461082b565b60009081526020819052604090206001015490565b6040519081526020016100f3565b61014061013b366004610860565b610253565b005b610140610150366004610860565b61027d565b610140610300565b6100e761016b36600461088c565b60036020526000908152604090205460ff1681565b61011f60025481565b6100e7610197366004610860565b610449565b61011f7f61c92169ef077349011ff0b1383c894d86c5f0b41d986366b58a6cf31e93beda81565b61011f600081565b6101406101d936600461082b565b610472565b6101406101ec366004610860565b6104d8565b600154610204906001600160a01b031681565b6040516001600160a01b0390911681526020016100f3565b60006001600160e01b03198216637965db0b60e01b148061024d57506301ffc9a760e01b6001600160e01b03198316145b92915050565b60008281526020819052604090206001015461026e816104fd565b610278838361050a565b505050565b6001600160a01b03811633146102f25760405162461bcd60e51b815260206004820152602f60248201527f416363657373436f6e74726f6c3a2063616e206f6e6c792072656e6f756e636560448201526e103937b632b9903337b91039b2b63360891b60648201526084015b60405180910390fd5b6102fc828261058e565b5050565b60405133907f4db40e774b0c18bfc5d62572b2fa6efe94ec09fbad164b9154c7116ec4a754e990600090a23360009081526003602052604090205460ff161561038b5760405162461bcd60e51b815260206004820152601860248201527f5961207265636c616d617374652074757320746f6b656e73000000000000000060448201526064016102e9565b3360008181526003602052604090819020805460ff191660019081179091555460025491516340c10f1960e01b8152600481019390935260248301919091526001600160a01b0316906340c10f1990604401600060405180830381600087803b1580156103f757600080fd5b505af115801561040b573d6000803e3d6000fd5b50506002546040519081523392507f896e034966eaaf1adc54acc0f257056febbd300c9e47182cf761982cf1f5e430915060200160405180910390a2565b6000918252602082815260408084206001600160a01b0393909316845291905290205460ff1690565b7f61c92169ef077349011ff0b1383c894d86c5f0b41d986366b58a6cf31e93beda61049c816104fd565b60028290556040518281527f6a856539d0c38e2d0062c02baf02b3d784e9de37335f10d75d5ed7e606c704569060200160405180910390a15050565b6000828152602081905260409020600101546104f3816104fd565b610278838361058e565b61050781336105f3565b50565b6105148282610449565b6102fc576000828152602081815260408083206001600160a01b03851684529091529020805460ff1916600117905561054a3390565b6001600160a01b0316816001600160a01b0316837f2f8788117e7eff1d82e926ec794901d17c78024a50270940304540a733656f0d60405160405180910390a45050565b6105988282610449565b156102fc576000828152602081815260408083206001600160a01b0385168085529252808320805460ff1916905551339285917ff6391f5c32d9c69d2a47ea670b442974b53935d1edc7fd64eb21e047a839171b9190a45050565b6105fd8282610449565b6102fc5761060a8161064c565b61061583602061065e565b6040516020016106269291906108cb565b60408051601f198184030181529082905262461bcd60e51b82526102e991600401610940565b606061024d6001600160a01b03831660145b6060600061066d836002610989565b6106789060026109a0565b67ffffffffffffffff811115610690576106906109b3565b6040519080825280601f01601f1916602001820160405280156106ba576020820181803683370190505b509050600360fc1b816000815181106106d5576106d56109c9565b60200101906001600160f81b031916908160001a905350600f60fb1b81600181518110610704576107046109c9565b60200101906001600160f81b031916908160001a9053506000610728846002610989565b6107339060016109a0565b90505b60018111156107ab576f181899199a1a9b1b9c1cb0b131b232b360811b85600f1660108110610767576107676109c9565b1a60f81b82828151811061077d5761077d6109c9565b60200101906001600160f81b031916908160001a90535060049490941c936107a4816109df565b9050610736565b5083156107fa5760405162461bcd60e51b815260206004820181905260248201527f537472696e67733a20686578206c656e67746820696e73756666696369656e7460448201526064016102e9565b9392505050565b60006020828403121561081357600080fd5b81356001600160e01b0319811681146107fa57600080fd5b60006020828403121561083d57600080fd5b5035919050565b80356001600160a01b038116811461085b57600080fd5b919050565b6000806040838503121561087357600080fd5b8235915061088360208401610844565b90509250929050565b60006020828403121561089e57600080fd5b6107fa82610844565b60005b838110156108c25781810151838201526020016108aa565b50506000910152565b7f416363657373436f6e74726f6c3a206163636f756e74200000000000000000008152600083516109038160178501602088016108a7565b7001034b99036b4b9b9b4b733903937b6329607d1b60179184019182015283516109348160288401602088016108a7565b01602801949350505050565b602081526000825180602084015261095f8160408501602087016108a7565b601f01601f19169190910160400192915050565b634e487b7160e01b600052601160045260246000fd5b808202811582820484141761024d5761024d610973565b8082018082111561024d5761024d610973565b634e487b7160e01b600052604160045260246000fd5b634e487b7160e01b600052603260045260246000fd5b6000816109ee576109ee610973565b50600019019056fea2646970667358221220c4a481a751be789612f3b6e6c0fbcda98a001f09e0307806ccce25bdec803f4964736f6c63430008180033",
  "linkReferences": {},
  "deployedLinkReferences": {}
}