{
  "_format": "hh-sol-artifact-1",
  "contractName": "Faucet",
  "sourceName": "contracts/Faucet.sol",
  "abi": [
    {
      "inputs": [
        {
          "internalType": "address",
          "name": "tokenAddress",
          "type": "address"
        }
      ],
      "stateMutability": "nonpayable",
      "type": "constructor"
    },
    {
      "anonymous": false,
      "inputs": [
        {
          "indexed": true,
          "internalType": "address",
          "name": "user",
          "type": "address"
        }
      ],
      "name": "ClaimRequested",
      "type": "event"
    },
    {
      "anonymous": false,
      "inputs": [
        {
          "indexed": true,
          "internalType": "address",
          "name": "user",
          "type": "address"
        },
        {
          "indexed": false,
          "internalType": "uint256",
          "name": "amount",
          "type": "uint256"
        }
      ],
      "name": "TokensClaimed",
      "type": "event"
    },
    {
      "inputs": [],
      "name": "claimAmount",
      "outputs": [
        {
          "internalType": "uint256",
          "name": "",
          "type": "uint256"
        }
      ],
      "stateMutability": "view",
      "type": "function"
    },
    {
      "inputs": [],
      "name": "claimTokens",
      "outputs": [],
      "stateMutability": "nonpayable",
      "type": "function"
    },
    {
      "inputs": [
        {
          "internalType": "address",
          "name": "",
          "type": "address"
        }
      ],
      "name": "hasClaimed",
      "outputs": [
        {
          "internalType": "bool",
          "name": "",
          "type": "bool"
        }
      ],
      "stateMutability": "view",
      "type": "function"
    },
    {
      "inputs": [],
      "name": "token",
      "outputs": [
        {
          "internalType": "contract MyToken",
          "name": "",
          "type": "address"
        }
      ],
      "stateMutability": "view",
      "type": "function"
    }
  ],
  "bytecode": "0x6080604052630bebc20060015534801561001857600080fd5b5060405161031f38038061031f8339810160408190526100379161005c565b600080546001600160a01b0319166001600160a01b039290921691909117905561008c565b60006020828403121561006e57600080fd5b81516001600160a01b038116811461008557600080fd5b9392505050565b6102848061009b6000396000f3fe608060405234801561001057600080fd5b506004361061004c5760003560e01c806348c54b9d1461005157806373b2e80e1461005b578063830953ab14610093578063fc0c546a146100aa575b600080fd5b6100596100d5565b005b61007e61006936600461021e565b60026020526000908152604090205460ff1681565b60405190151581526020015b60405180910390f35b61009c60015481565b60405190815260200161008a565b6000546100bd906001600160a01b031681565b6040516001600160a01b03909116815260200161008a565b60405133907f4db40e774b0c18bfc5d62572b2fa6efe94ec09fbad164b9154c7116ec4a754e990600090a23360009081526002602052604090205460ff16156101645760405162461bcd60e51b815260206004820152601860248201527f5961207265636c616d617374652074757320746f6b656e730000000000000000604482015260640160405180910390fd5b33600081815260026020526040808220805460ff191660019081179091559154915490516340c10f1960e01b8152600481019390935260248301526001600160a01b0316906340c10f1990604401600060405180830381600087803b1580156101cc57600080fd5b505af11580156101e0573d6000803e3d6000fd5b50506001546040519081523392507f896e034966eaaf1adc54acc0f257056febbd300c9e47182cf761982cf1f5e430915060200160405180910390a2565b60006020828403121561023057600080fd5b81356001600160a01b038116811461024757600080fd5b939250505056fea2646970667358221220adb5fab0de34afa578d87b530895c6f1f4606c6bdabbd4df04caa6a577cb23eb64736f6c63430008180033",
  "linkReferences": {},
  "deployedLinkReferences": {}
}