{
  "_format": "hh-sol-artifact-1",
  "contractName": "PesosArgToken",
  "sourceName": "contracts/PesosArgToken.sol",
  "abi": [
    {
      "inputs": [],
      "stateMutability": "nonpayable",
      "type": "constructor"
    },
    {
      "anonymous": false,
      "inputs": [
        {
          "indexed": true,
          "internalType": "address",
          "name": "owner",
          "type": "address"
        },
        {
          "indexed": true,
          "internalType": "address",
          "name": "spender",
          "type": "address"
        },
        {
          "indexed": false,
          "internalType": "uint256",
          "name": "value",
          "type": "uint256"
        }
      ],
      "name": "Approval",
      "type": "event"
    },
    {
      "anonymous": false,
      "inputs": [
        {
          "indexed": true,
          "internalType": "address",
          "name": "to",
          "type": "address"
        },
        {
          "indexed": false,
          "internalType": "uint256",
          "name": "amount",
          "type": "uint256"
        }
      ],
      "name": "BeforeMint",
      "type": "event"
    },
    {
      "anonymous": false,
      "inputs": [
        {
          "indexed": true,
          "internalType": "address",
          "name": "to",
          "type": "address"
        },
        {
          "indexed": false,
          "internalType": "uint256",
          "name": "amount",
          "type": "uint256"
        }
      ],
      "name": "Mint",
      "type": "event"
    },
    {
      "anonymous": false,
      "inputs": [
        {
          "indexed": true,
          "internalType": "address",
          "name": "previousOwner",
          "type": "address"
        },
        {
          "indexed": true,
          "internalType": "address",
          "name": "newOwner",
          "type": "address"
        }
      ],
      "name": "OwnershipTransferred",
      "type": "event"
    },
    {
      "anonymous": false,
      "inputs": [
        {
          "indexed": true,
          "internalType": "bytes32",
          "name": "role",
          "type": "bytes32"
        },
        {
          "indexed": true,
          "internalType": "bytes32",
          "name": "previousAdminRole",
          "type": "bytes32"
        },
        {
          "indexed": true,
          "internalType": "bytes32",
          "name": "newAdminRole",
          "type": "bytes32"
        }
      ],
      "name": "RoleAdminChanged",
      "type": "event"
    },
    {
      "anonymous": false,
      "inputs": [
        {
          "indexed": true,
          "internalType": "bytes32",
          "name": "role",
          "type": "bytes32"
        },
        {
          "indexed": true,
          "internalType": "address",
          "name": "account",
          "type": "address"
        },
        {
          "indexed": true,
          "internalType": "address",
          "name": "sender",
          "type": "address"
        }
      ],
      "name": "RoleGranted",
      "type": "event"
    },
    {
      "anonymous": false,
      "inputs": [
        {
          "indexed": true,
          "internalType": "bytes32",
          "name": "role",
          "type": "bytes32"
        },
        {
          "indexed": true,
          "internalType": "address",
          "name": "account",
          "type": "address"
        },
        {
          "indexed": true,
          "internalType": "address",
          "name": "sender",
          "type": "address"
        }
      ],
      "name": "RoleRevoked",
      "type": "event"
    },
    {
      "anonymous": false,
      "inputs": [
        {
          "indexed": true,
          "internalType": "address",
          "name": "from",
          "type": "address"
        },
        {
          "indexed": true,
          "internalType": "address",
          "name": "to",
          "type": "address"
        },
        {
          "indexed": false,
          "internalType": "uint256",
          "name": "value",
          "type": "uint256"
        }
      ],
      "name": "Transfer",
      "type": "event"
    },
    {
      "inputs": [],
      "name": "DEFAULT_ADMIN_ROLE",
      "outputs": [
        {
          "internalType": "bytes32",
          "name": "",
          "type": "bytes32"
        }
      ],
      "stateMutability": "view",
      "type": "function"
    },
    {
      "inputs": [],
      "name": "MINTER_ROLE",
      "outputs": [
        {
          "internalType": "bytes32",
          "name": "",
          "type": "bytes32"
        }
      ],
      "stateMutability": "view",
      "type": "function"
    },
    {
      "inputs": [
        {
          "internalType": "address",
          "name": "owner",
          "type": "address"
        },
        {
          "internalType": "address",
          "name": "spender",
          "type": "address"
        }
      ],
      "name": "allowance",
      "outputs": [
        {
          "internalType": "uint256",
          "name": "",
          "type": "uint256"
        }
      ],
      "stateMutability": "view",
      "type": "function"
    },
    {
      "inputs": [
        {
          "internalType": "address",
          "name": "spender",
          "type": "address"
        },
        {
          "internalType": "uint256",
          "name": "amount",
          "type": "uint256"
        }
      ],
      "name": "approve",
      "outputs": [
        {
          "internalType": "bool",
          "name": "",
          "type": "bool"
        }
      ],
      "stateMutability": "nonpayable",
      "type": "function"
    },
    {
      "inputs": [
        {
          "internalType": "address",
          "name": "account",
          "type": "address"
        }
      ],
      "name": "balanceOf",
      "outputs": [
        {
          "internalType": "uint256",
          "name": "",
          "type": "uint256"
        }
      ],
      "stateMutability": "view",
      "type": "function"
    },
    {
      "inputs": [],
      "name": "decimals",
      "outputs": [
        {
          "internalType": "uint8",
          "name": "",
          "type": "uint8"
        }
      ],
      "stateMutability": "view",
      "type": "function"
    },
    {
      "inputs": [
        {
          "internalType": "address",
          "name": "spender",
          "type": "address"
        },
        {
          "internalType": "uint256",
          "name": "subtractedValue",
          "type": "uint256"
        }
      ],
      "name": "decreaseAllowance",
      "outputs": [
        {
          "internalType": "bool",
          "name": "",
          "type": "bool"
        }
      ],
      "stateMutability": "nonpayable",
      "type": "function"
    },
    {
      "inputs": [
        {
          "internalType": "bytes32",
          "name": "role",
          "type": "bytes32"
        }
      ],
      "name": "getRoleAdmin",
      "outputs": [
        {
          "internalType": "bytes32",
          "name": "",
          "type": "bytes32"
        }
      ],
      "stateMutability": "view",
      "type": "function"
    },
    {
      "inputs": [
        {
          "internalType": "bytes32",
          "name": "role",
          "type": "bytes32"
        },
        {
          "internalType": "address",
          "name": "account",
          "type": "address"
        }
      ],
      "name": "grantRole",
      "outputs": [],
      "stateMutability": "nonpayable",
      "type": "function"
    },
    {
      "inputs": [
        {
          "internalType": "bytes32",
          "name": "role",
          "type": "bytes32"
        },
        {
          "internalType": "address",
          "name": "account",
          "type": "address"
        }
      ],
      "name": "hasRole",
      "outputs": [
        {
          "internalType": "bool",
          "name": "",
          "type": "bool"
        }
      ],
      "stateMutability": "view",
      "type": "function"
    },
    {
      "inputs": [
        {
          "internalType": "address",
          "name": "spender",
          "type": "address"
        },
        {
          "internalType": "uint256",
          "name": "addedValue",
          "type": "uint256"
        }
      ],
      "name": "increaseAllowance",
      "outputs": [
        {
          "internalType": "bool",
          "name": "",
          "type": "bool"
        }
      ],
      "stateMutability": "nonpayable",
      "type": "function"
    },
    {
      "inputs": [
        {
          "internalType": "address",
          "name": "to",
          "type": "address"
        },
        {
          "internalType": "uint256",
          "name": "amount",
          "type": "uint256"
        }
      ],
      "name": "mint",
      "outputs": [],
      "stateMutability": "nonpayable",
      "type": "function"
    },
    {
      "inputs": [],
      "name": "name",
      "outputs": [
        {
          "internalType": "string",
          "name": "",
          "type": "string"
        }
      ],
      "stateMutability": "view",
      "type": "function"
    },
    {
      "inputs": [],
      "name": "owner",
      "outputs": [
        {
          "internalType": "address",
          "name": "",
          "type": "address"
        }
      ],
      "stateMutability": "view",
      "type": "function"
    },
    {
      "inputs": [],
      "name": "renounceOwnership",
      "outputs": [],
      "stateMutability": "nonpayable",
      "type": "function"
    },
    {
      "inputs": [
        {
          "internalType": "bytes32",
          "name": "role",
          "type": "bytes32"
        },
        {
          "internalType": "address",
          "name": "account",
          "type": "address"
        }
      ],
      "name": "renounceRole",
      "outputs": [],
      "stateMutability": "nonpayable",
      "type": "function"
    },
    {
      "inputs": [
        {
          "internalType": "bytes32",
          "name": "role",
          "type": "bytes32"
        },
        {
          "internalType": "address",
          "name": "account",
          "type": "address"
        }
      ],
      "name": "revokeRole",
      "outputs": [],
      "stateMutability": "nonpayable",
      "type": "function"
    },
    {
      "inputs": [
        {
          "internalType": "bytes4",
          "name": "interfaceId",
          "type": "bytes4"
        }
      ],
      "name": "supportsInterface",
      "outputs": [
        {
          "internalType": "bool",
          "name": "",
          "type": "bool"
        }
      ],
      "stateMutability": "view",
      "type": "function"
    },
    {
      "inputs": [],
      "name": "symbol",
      "outputs": [
        {
          "internalType": "string",
          "name": "",
          "type": "string"
        }
      ],
      "stateMutability": "view",
      "type": "function"
    },
    {
      "inputs": [],
      "name": "totalSupply",
      "outputs": [
        {
          "internalType": "uint256",
          "name": "",
          "type": "uint256"
        }
      ],
      "stateMutability": "view",
      "type": "function"
    },
    {
      "inputs": [
        {
          "internalType": "address",
          "name": "to",
          "type": "address"
        },
        {
          "internalType": "uint256",
          "name": "amount",
          "type": "uint256"
        }
      ],
      "name": "transfer",
      "outputs": [
        {
          "internalType": "bool",
          "name": "",
          "type": "bool"
        }
      ],
      "stateMutability": "nonpayable",
      "type": "function"
    },
    {
      "inputs": [
        {
          "internalType": "address",
          "name": "from",
          "type": "address"
        },
        {
          "internalType": "address",
          "name": "to",
          "type": "address"
        },
        {
          "internalType": "uint256",
          "name": "amount",
          "type": "uint256"
        }
      ],
      "name": "transferFrom",
      "outputs": [
        {
          "internalType": "bool",
          "name": "",
          "type": "bool"
        }
      ],
      "stateMutability": "nonpayable",
      "type": "function"
    },
    {
      "inputs": [
        {
          "internalType": "address",
          "name": "newOwner",
          "type": "address"
        }
      ],
      "name": "transferOwnership",
      "outputs": [],
      "stateMutability": "nonpayable",
      "type": "function"
    }
  ],
  "bytecode": "0x60806040523480156200001157600080fd5b506040518060400160405280601f81526020017f5065736f7320417267656e74696e6f7320446976697361204d756e6469616c008152506040518060400160405280600381526020016241525360e81b815250816003908162000075919062000265565b50600462000084828262000265565b505050620000a16200009b620000b460201b60201c565b620000b8565b620000ae6000336200010a565b62000331565b3390565b600680546001600160a01b038381166001600160a01b0319831681179093556040519116919082907f8be0079c531659141344cd1fd0a4f28419497f9722a3daafe3b4186f6b6457e090600090a35050565b6200011682826200011a565b5050565b60008281526005602090815260408083206001600160a01b038516845290915290205460ff16620001165760008281526005602090815260408083206001600160a01b03851684529091529020805460ff191660011790556200017a3390565b6001600160a01b0316816001600160a01b0316837f2f8788117e7eff1d82e926ec794901d17c78024a50270940304540a733656f0d60405160405180910390a45050565b634e487b7160e01b600052604160045260246000fd5b600181811c90821680620001e957607f821691505b6020821081036200020a57634e487b7160e01b600052602260045260246000fd5b50919050565b601f82111562000260576000816000526020600020601f850160051c810160208610156200023b5750805b601f850160051c820191505b818110156200025c5782815560010162000247565b5050505b505050565b81516001600160401b03811115620002815762000281620001be565b6200029981620002928454620001d4565b8462000210565b602080601f831160018114620002d15760008415620002b85750858301515b600019600386901b1c1916600185901b1785556200025c565b600085815260208120601f198616915b828110156200030257888601518255948401946001909101908401620002e1565b5085821015620003215787850151600019600388901b60f8161c191681555b5050505050600190811b01905550565b61121680620003416000396000f3fe608060405234801561001057600080fd5b506004361061014d5760003560e01c806370a08231116100c3578063a457c2d71161007c578063a457c2d7146102b6578063a9059cbb146102c9578063d5391393146102dc578063d547741f14610303578063dd62ed3e14610316578063f2fde38b1461032957600080fd5b806370a0823114610247578063715018a6146102705780638da5cb5b1461027857806391d148541461029357806395d89b41146102a6578063a217fddf146102ae57600080fd5b8063248a9ca311610115578063248a9ca3146101c75780632f2ff15d146101ea578063313ce567146101ff57806336568abe1461020e578063395093511461022157806340c10f191461023457600080fd5b806301ffc9a71461015257806306fdde031461017a578063095ea7b31461018f57806318160ddd146101a257806323b872dd146101b4575b600080fd5b610165610160366004610f21565b61033c565b60405190151581526020015b60405180910390f35b610182610373565b6040516101719190610f6f565b61016561019d366004610fbe565b610405565b6002545b604051908152602001610171565b6101656101c2366004610fe8565b61041d565b6101a66101d5366004611024565b60009081526005602052604090206001015490565b6101fd6101f836600461103d565b610441565b005b60405160068152602001610171565b6101fd61021c36600461103d565b61046b565b61016561022f366004610fbe565b6104ee565b6101fd610242366004610fbe565b610510565b6101a6610255366004611069565b6001600160a01b031660009081526020819052604090205490565b6101fd6105cf565b6006546040516001600160a01b039091168152602001610171565b6101656102a136600461103d565b6105e3565b61018261060e565b6101a6600081565b6101656102c4366004610fbe565b61061d565b6101656102d7366004610fbe565b610698565b6101a67f9f2df0fed2c77648de5860a4cc508cd0818c85b8b8a1ab4ceeef8d981c8956a681565b6101fd61031136600461103d565b6106a6565b6101a6610324366004611084565b6106cb565b6101fd610337366004611069565b6106f6565b60006001600160e01b03198216637965db0b60e01b148061036d57506301ffc9a760e01b6001600160e01b03198316145b92915050565b606060038054610382906110ae565b80601f01602080910402602001604051908101604052809291908181526020018280546103ae906110ae565b80156103fb5780601f106103d0576101008083540402835291602001916103fb565b820191906000526020600020905b8154815290600101906020018083116103de57829003601f168201915b5050505050905090565b60003361041381858561076f565b5060019392505050565b60003361042b858285610893565b61043685858561090d565b506001949350505050565b60008281526005602052604090206001015461045c81610ab1565b6104668383610abb565b505050565b6001600160a01b03811633146104e05760405162461bcd60e51b815260206004820152602f60248201527f416363657373436f6e74726f6c3a2063616e206f6e6c792072656e6f756e636560448201526e103937b632b9903337b91039b2b63360891b60648201526084015b60405180910390fd5b6104ea8282610b41565b5050565b60003361041381858561050183836106cb565b61050b91906110fe565b61076f565b7f9f2df0fed2c77648de5860a4cc508cd0818c85b8b8a1ab4ceeef8d981c8956a661053a81610ab1565b826001600160a01b03167ffb037d1aa6d4f0a850718755eb6cc5d2eb7ad8de78c1cffda9ab6a7cae44a10e8360405161057591815260200190565b60405180910390a26105878383610ba8565b826001600160a01b03167f0f6798a560793a54c3bcfe86a93cde1e73087d944c0ea20544137d4121396885836040516105c291815260200190565b60405180910390a2505050565b6105d7610c67565b6105e16000610cc1565b565b60009182526005602090815260408084206001600160a01b0393909316845291905290205460ff1690565b606060048054610382906110ae565b6000338161062b82866106cb565b90508381101561068b5760405162461bcd60e51b815260206004820152602560248201527f45524332303a2064656372656173656420616c6c6f77616e63652062656c6f77604482015264207a65726f60d81b60648201526084016104d7565b610436828686840361076f565b60003361041381858561090d565b6000828152600560205260409020600101546106c181610ab1565b6104668383610b41565b6001600160a01b03918216600090815260016020908152604080832093909416825291909152205490565b6106fe610c67565b6001600160a01b0381166107635760405162461bcd60e51b815260206004820152602660248201527f4f776e61626c653a206e6577206f776e657220697320746865207a65726f206160448201526564647265737360d01b60648201526084016104d7565b61076c81610cc1565b50565b6001600160a01b0383166107d15760405162461bcd60e51b8152602060048201526024808201527f45524332303a20617070726f76652066726f6d20746865207a65726f206164646044820152637265737360e01b60648201526084016104d7565b6001600160a01b0382166108325760405162461bcd60e51b815260206004820152602260248201527f45524332303a20617070726f766520746f20746865207a65726f206164647265604482015261737360f01b60648201526084016104d7565b6001600160a01b0383811660008181526001602090815260408083209487168084529482529182902085905590518481527f8c5be1e5ebec7d5bd14f71427d1e84f3dd0314c0f7b2291e5b200ac8c7c3b925910160405180910390a3505050565b600061089f84846106cb565b9050600019811461090757818110156108fa5760405162461bcd60e51b815260206004820152601d60248201527f45524332303a20696e73756666696369656e7420616c6c6f77616e636500000060448201526064016104d7565b610907848484840361076f565b50505050565b6001600160a01b0383166109715760405162461bcd60e51b815260206004820152602560248201527f45524332303a207472616e736665722066726f6d20746865207a65726f206164604482015264647265737360d81b60648201526084016104d7565b6001600160a01b0382166109d35760405162461bcd60e51b815260206004820152602360248201527f45524332303a207472616e7366657220746f20746865207a65726f206164647260448201526265737360e81b60648201526084016104d7565b6001600160a01b03831660009081526020819052604090205481811015610a4b5760405162461bcd60e51b815260206004820152602660248201527f45524332303a207472616e7366657220616d6f756e7420657863656564732062604482015265616c616e636560d01b60648201526084016104d7565b6001600160a01b03848116600081815260208181526040808320878703905593871680835291849020805487019055925185815290927fddf252ad1be2c89b69c2b068fc378daa952ba7f163c4a11628f55a4df523b3ef910160405180910390a3610907565b61076c8133610d13565b610ac582826105e3565b6104ea5760008281526005602090815260408083206001600160a01b03851684529091529020805460ff19166001179055610afd3390565b6001600160a01b0316816001600160a01b0316837f2f8788117e7eff1d82e926ec794901d17c78024a50270940304540a733656f0d60405160405180910390a45050565b610b4b82826105e3565b156104ea5760008281526005602090815260408083206001600160a01b0385168085529252808320805460ff1916905551339285917ff6391f5c32d9c69d2a47ea670b442974b53935d1edc7fd64eb21e047a839171b9190a45050565b6001600160a01b038216610bfe5760405162461bcd60e51b815260206004820152601f60248201527f45524332303a206d696e7420746f20746865207a65726f20616464726573730060448201526064016104d7565b8060026000828254610c1091906110fe565b90915550506001600160a01b038216600081815260208181526040808320805486019055518481527fddf252ad1be2c89b69c2b068fc378daa952ba7f163c4a11628f55a4df523b3ef910160405180910390a35050565b6006546001600160a01b031633146105e15760405162461bcd60e51b815260206004820181905260248201527f4f776e61626c653a2063616c6c6572206973206e6f7420746865206f776e657260448201526064016104d7565b600680546001600160a01b038381166001600160a01b0319831681179093556040519116919082907f8be0079c531659141344cd1fd0a4f28419497f9722a3daafe3b4186f6b6457e090600090a35050565b610d1d82826105e3565b6104ea57610d2a81610d6c565b610d35836020610d7e565b604051602001610d46929190611111565b60408051601f198184030181529082905262461bcd60e51b82526104d791600401610f6f565b606061036d6001600160a01b03831660145b60606000610d8d836002611186565b610d989060026110fe565b67ffffffffffffffff811115610db057610db061119d565b6040519080825280601f01601f191660200182016040528015610dda576020820181803683370190505b509050600360fc1b81600081518110610df557610df56111b3565b60200101906001600160f81b031916908160001a905350600f60fb1b81600181518110610e2457610e246111b3565b60200101906001600160f81b031916908160001a9053506000610e48846002611186565b610e539060016110fe565b90505b6001811115610ecb576f181899199a1a9b1b9c1cb0b131b232b360811b85600f1660108110610e8757610e876111b3565b1a60f81b828281518110610e9d57610e9d6111b3565b60200101906001600160f81b031916908160001a90535060049490941c93610ec4816111c9565b9050610e56565b508315610f1a5760405162461bcd60e51b815260206004820181905260248201527f537472696e67733a20686578206c656e67746820696e73756666696369656e7460448201526064016104d7565b9392505050565b600060208284031215610f3357600080fd5b81356001600160e01b031981168114610f1a57600080fd5b60005b83811015610f66578181015183820152602001610f4e565b50506000910152565b6020815260008251806020840152610f8e816040850160208701610f4b565b601f01601f19169190910160400192915050565b80356001600160a01b0381168114610fb957600080fd5b919050565b60008060408385031215610fd157600080fd5b610fda83610fa2565b946020939093013593505050565b600080600060608486031215610ffd57600080fd5b61100684610fa2565b925061101460208501610fa2565b9150604084013590509250925092565b60006020828403121561103657600080fd5b5035919050565b6000806040838503121561105057600080fd5b8235915061106060208401610fa2565b90509250929050565b60006020828403121561107b57600080fd5b610f1a82610fa2565b6000806040838503121561109757600080fd5b6110a083610fa2565b915061106060208401610fa2565b600181811c908216806110c257607f821691505b6020821081036110e257634e487b7160e01b600052602260045260246000fd5b50919050565b634e487b7160e01b600052601160045260246000fd5b8082018082111561036d5761036d6110e8565b7f416363657373436f6e74726f6c3a206163636f756e7420000000000000000000815260008351611149816017850160208801610f4b565b7001034b99036b4b9b9b4b733903937b6329607d1b601791840191820152835161117a816028840160208801610f4b565b01602801949350505050565b808202811582820484141761036d5761036d6110e8565b634e487b7160e01b600052604160045260246000fd5b634e487b7160e01b600052603260045260246000fd5b6000816111d8576111d86110e8565b50600019019056fea264697066735822122089ec32e8e1b3bf68a24d055aa712e61e06a1a423b38df0c3a9d313b99d6e5efa64736f6c63430008180033",
  "linkReferences": {},
  "deployedLinkReferences": {}
}